:100000000C9446000C9465000C9465000C946500FB
:100010000C9465000C9465000C9465000C946500CC
:100020000C9465000C9465000C9467000C946500BA
:100030000C9465000C9465000C9465000C946500AC
:100040000C940F0D0C9465000C9465000C946500E5
:100050000C9465000C9465000C9465000C9465008C
:100060000C9465000C9465000C9465000C9465007C
:100070000C9465000C9465000C9465000C9465006C
:100080000C9465000C9465000C94650011241FBE4F
:10009000CFEFD0E1DEBFCDBF12E0A0E0B1E0EEE8EF
:1000A000FBE100E00BBF02C007900D92AA31B1073F
:1000B000D9F717E0AAE1B2E001C01D92AE3BB1074B
:1000C000E1F70E94A2020C94C50D0C9400001F924F
:1000D0000F920FB60F920BB60F9211248F939F932E
:1000E000EF93FF9380911A0290911B020197D9F030
:1000F00080E188BB81E090E090931B0280931A021C
:10010000E0911C02F0911D02E050FF4F808184BD00
:10011000FF91EF919F918F910F900BBE0F900FBEAB
:100120000F901F90189518BA10921B0210921A0285
:10013000E7CF17B887E886B90895369A349BFECF83
:1001400024B145B1942F80E030E0282B392BC90130
:1001500008958FEF8ABB08958FEF84BB8FE0809363
:100160006400089580E187BB83E085BD789481E1D8
:1001700084BD08959F92AF92BF92CF92DF92EF928B
:10018000FF920F931F93DF93CF93CDB7DEB72997DD
:100190000FB6F894DEBF0FBECDBFFC01208130E06A
:1001A0002053304081E090E002C0880F991F2A95CB
:1001B000E2F7D82E7E010894E11CF11C9924939457
:1001C00000E41FE122E0C22E94E0B92E88E0A82EC0
:1001D000F89420912602309127027894C90168EEA4
:1001E00073E00E948F0DCB016AE070E00E948F0DDA
:1001F000FC01E85FFE4F808188871986C90164E6AB
:1002000070E00E948F0DCB016AE070E00E948F0DBC
:10021000FC01E85FFE4F80818E831F82C9016AE086
:1002200070E00E948F0DCB016AE070E00E948F0D9C
:10023000FC01E85FFE4F80818C831D82C9016AE06A
:1002400070E00E948F0DFC01E85FFE4F80818A8381
:100250001B8285BB90926500C8010197F1F78C81E4
:1002600085BBC0926500C8010197F1F78E8185BBFF
:10027000B0926500C8010197F1F7888585BBA0920F
:100280006500C8010197F1F7809128029091290239
:100290006D2D41E097010E94A4099ACFDF92EF9261
:1002A000FF920F931F93DF93CF930F92CDB7DEB7DB
:1002B000FC018FEF8ABB208130E02053304081E089
:1002C00090E002C0880F991F2A95E2F7D82E7E0190
:1002D0000894E11CF11C01E010E08091240290914F
:1002E000250260E070E0A7010E94C508FC01808142
:1002F000918164E670E00E948F0D9B0177FD22C022
:1003000040E050E0C801022E02C0880F991F0A94F5
:10031000E2F7482B592B2150304037FFF3CF842F81
:100320008BBB80912802909129026D2D41E09701AD
:100330000E94A40980E060E040E025E030E00E94F7
:100340009806CBCF80E0ECCFFF920F931F93DF9303
:10035000CF930F92CDB7DEB7FC018FEF84BB8FE058
:1003600080936400208130E02053304081E090E0B1
:1003700002C0880F991F2A95E2F7F82E8E010F5FB1
:100380001F4F809124029091250260E070E0A80147
:100390000E94C508FC0180819181F8949093270206
:1003A00080932602789480912802909129026F2DE3
:1003B00041E098010E94A40980E060E040E025E06F
:1003C00030E00E949806DDCFEF92FF920F931F93CB
:1003D000DF93CF930F92CDB7DEB7FC0180E187BBEF
:1003E00083E085BD789481E184BD208130E0205395
:1003F000304081E090E002C0880F991F2A95E2F713
:10040000F82E8E010F5F1F4FEE24E39421C0F89465
:100410008C5B924064E670E00E948F0D660F771F40
:1004200070931D0260931C0287B7806487BF789425
:1004300080912802909129026F2D41E098010E943D
:10044000A40980E060E040E025E030E00E949806EA
:10045000809124029091250260E070E0A8010E9442
:10046000C508FC018081918122E08D3B920778F6DE
:10047000F894E7BE7894DCCFEF92FF920F931F932E
:10048000DF93CF9300D00F92CDB7DEB77E010894F3
:10049000E11CF11C8E010E5F1F4F80912B02909189
:1004A0002C0260E070E0A7010E945609FC018081E7
:1004B00091819B838A838091240290912502B801C7
:1004C0000E9484088091240290912502B8010E9424
:1004D00084088091240290912502B8010E9484082A
:1004E000DCCFCF92DF92EF92FF920F931F93DF93B7
:1004F000CF9300D00F92CDB7DEB717B887E886B993
:1005000042E0C42ED12CCC0EDD1E7E010894E11CED
:10051000F11CF8940E949D009B838A8378948091BB
:100520002B0290912C02B6010E943C098091280276
:10053000909129026CE342E820E030E087010E94BC
:100540001B0AE7CF0E94BD0BF89487E083BF81E0D0
:1005500087BF84E682BF789480E090E00E94F50433
:1005600090932C0280932B028EE192E063E070E086
:100570000E941905909325028093240280E06AE28C
:1005800072E00E941C04909329028093280220E0CC
:1005900030E0F901E35DFD4F822F805D80832F5FA6
:1005A0003F4F26303105A9F781E792E06DE272E016
:1005B00042EB52E020E00E94C6078CE392E06EE23C
:1005C00072E042E353E021E00E94C60784EE91E02E
:1005D0006FE272E042EB53E022E00E94C60784EA39
:1005E00091E060E372E042E354E023E00E94C6073A
:1005F0008EE491E061E372E042EB54E024E00E947B
:10060000C6078AEB90E062E372E042E355E025E042
:100610000E94C6070E943D0B80E090E00895FA0119
:1006200080839293129212921292129212921292CA
:10063000129212921292129212921292129212929A
:10064000129212921292129212921292129212928A
:1006500012921292629372931292129212921292C8
:1006600012921292129280E882933197CF010895EC
:100670000895089508950895089508950895089592
:10068000089580913405813009F008958091F30533
:100690008F3FD9F38F5F8093F305089580913405E0
:1006A000813009F00895F894809133058F3F19F057
:1006B0008F5F80933305789408958CEF90E00895D0
:1006C000FF920F931F93CF93DF93EC018B01F42ED6
:1006D0003981E32FF0E0E65EFE4F2081422F50E0AB
:1006E000FA01EE5EFE4F7081DC01A40FB51F169675
:1006F0009C911697E92FF0E0E65EFE4F8081E82F8F
:10070000F0E0EE5EFE4F6081220F220F220F280FD5
:10071000862F8095892316968C93882321F4872F22
:10072000809538233983E22FF0E0EE0FFF1FE0566B
:10073000F84F0190F081E02D1486138617821682FF
:10074000118700878F2D809595858923858788233C
:1007500059F48091ED05872B8093ED05FA01E25164
:10076000FA4F8081682B6083822FDF91CF911F9198
:100770000F91FF900895CF93DF93EC01A091F405C2
:10078000B091F50517969C938E93169750968C9181
:100790005097482F50E051963C915197FA01E25101
:1007A000FA4F832F80959081892380838823A9F431
:1007B00052962C91922F90958091ED0589238093EC
:1007C000ED05FE01E40FF51F8681832B8683898169
:1007D000822B8983DF91CF91089552962C91F1CF8E
:1007E000CF93DF93EC01A091F405B091F5055096FD
:1007F0008C915097FE01E80FF11D51968C91519705
:100800008095968189238683882339F452969C911A
:10081000529790958981892389831D961C921D97F3
:1008200017961C921E921697DF91CF910895FC01A6
:100830001182168217820895282FDB018091F3051B
:100840008823D9F4F894E0919D07F0919E073097A2
:1008500079F08181928190939E0780939D0785E036
:10086000808323831282118278941C92CF01089591
:1008700078948AE98C93CF0108958DE88C93E0E019
:10088000F0E0F4CFEF92FF920F931F93CF93DF939B
:100890007C01FB01A091F405B091F5051D968C91AA
:1008A0001D9780621D968C931D971C961C930E932A
:1008B0001B9740872187B583A483E70189819A81AB
:1008C0009183808313821282F782E68289819A81E2
:1008D000009719F0EC017B836A83E701FA83E983CF
:1008E0005096EC915097F0E0E251FA4F51968C916E
:1008F00051978095908189238083882341F4529673
:100900009C9190958091ED0589238093ED05DF9171
:10091000CF911F910F91FF90EF9008958AE395E09A
:1009200090939E0780939D0710923A0510923C0584
:1009300010923B050895CF93DF93FC01A281B38110
:10094000C081D181109751F01196DC93CE932097FE
:1009500011F0BB83AA83DF91CF9108950680F781C0
:10096000E02DD283C1832097B1F31B821A82DF91DD
:10097000CF9108951F93CF93DF93EC01AC81BD819C
:100980001C961C921E921B971A966C931A971D9692
:100990008C911D978F7D1D968C931D978823E1F474
:1009A0008091ED0552969C915297892B8093ED058D
:1009B0005096EC915097F0E0E251FA4F80815196B9
:1009C0009C91892B808311E0CE010E949B04812F92
:1009D000DF91CF911F91089510E0CE010E949B04FA
:1009E000812FDF91CF911F9108959C018091F30594
:1009F0008823D9F4F894E091F005F091F10530974F
:100A000031F0848195819093F1058093F00578947D
:100A1000309749F081E080831382128235832483EA
:100A2000118216821782CF010895E0E0F0E0CF0135
:100A300008959C018091F305882309F052C0F89431
:100A4000E091F005F091F105309731F084819581C6
:100A50009093F1058093F00578943097A9F1F8947C
:100A6000A091EB05B091EC05109781F18D919C91CF
:100A700011979093EC058093EB05789413963C9333
:100A80002E931297CB01880F991F820F931F1596F3
:100A90009C938E93149717963C932E9316971996C2
:100AA0003C932E9318971B967C936E931A971D96E2
:100AB0001C921E921C9782E0808313821282B5835F
:100AC000A483118216821782CF0108958091F005C8
:100AD0009091F10595838483F093F105E093F005FF
:100AE0007894E0E0F0E0CF0108958BED95E09093ED
:100AF000CE058093CD050E971092DC051092DB0594
:100B00009093EC058093EB0508959C018091F3058B
:100B10008823D9F4F894E091F005F091F10530972D
:100B200031F0848195819093F1058093F00578945C
:100B3000309749F083E080833383228315821482C7
:100B4000118216821782CF010895E0E0F0E0CF0114
:100B500008951F93CF93DF93182FF894C091C90580
:100B6000D091CA05209709F456C08A819B81909341
:100B7000CA058093C9057894798368831E871D868A
:100B80001C861B86E12FE695E695E695E88BF0E05E
:100B9000EE5EFE4F80818A8BE12FE770EF87F0E0F9
:100BA000EE5EFE4F8081898B1F821E821986188619
:100BB000CE010E944003CE010E943803F894E12F39
:100BC000F0E0EE0FFF1FE056F84FD183C083E091B5
:100BD0003F05F0914005FB83EA831D821C8230971C
:100BE00011F0D583C483D0934005C0933F05809115
:100BF000ED059A89892B8093ED05E889F0E0E251B3
:100C0000FA4F80819989892B8083789480E0DF91E5
:100C1000CF911F910895789486E4DF91CF911F9131
:100C20000895F8948091350590913605A091370587
:100C3000B09138050196A11DB11D809335059093A3
:100C40003605A0933705B093380578940E943F038A
:100C5000E8CFF8948091F305882309F03FC0809194
:100C600033058823D9F5E091ED05F0E0E65EFE4F0F
:100C70008081E82FF0E0E251FA4FE081F0E0E65E9B
:100C8000FE4F982F990F990F990F8081980F90938D
:100C9000390580913E05981709F1E92FF0E0EE0F34
:100CA000FF1FE056F84F808191819093EA05809371
:100CB000E9058091C1059091C205A091C305B0914D
:100CC000C4050196A11DB11D8093C1059093C20575
:100CD000A093C305B093C4050E94750C7894089541
:100CE0009C01009721F1F894A091F405B091F505CD
:100CF0005096EC915097F0E0E251FA4F51968C915A
:100D000051978095908189238083882349F4529656
:100D10009C91529790958091ED0589238093ED05E4
:100D20001C963C932E931B9778940E942906089555
:100D30008F929F92AF92BF92CF92DF92EF92FF92EB
:100D40000F931F93CF93DF93882E162F942E882313
:100D5000C9F01C3300F58BE3891590F093E0283E31
:100D60003907D8F083E5DF91CF911F910F91FF9064
:100D7000EF90DF90CF90BF90AF909F908F900895AD
:100D800082E5F1CF662329F7442329F721153105A0
:100D900029F784E5E8CF81E5E6CFB90180E090E06E
:100DA00024E630E040E050E00E94700D6C507E4F31
:100DB0008F4F9F4F28EE33E040E050E00E94A30D9C
:100DC00059016A01612F70E080E090E02CE330E08F
:100DD00040E050E00E94700D7B018C01E90CF11C99
:100DE000011D111D682D70E080E090E020E13EE0E3
:100DF00040E050E00E94700DE60EF71E081F191F1C
:100E0000C801B70124E630E040E050E00E94700DD8
:100E1000A60EB71EC81ED91E760100271127E701AE
:100E20008FEF9FEFA0E0B0E0A822B922CA22DB2218
:100E3000C5010E947006EF2851F080E090E80E9402
:100E4000700680E090E80E9470062197B1F780E07C
:100E50008ACFDF92EF92FF920F931F9380919F07AB
:100E6000882341F488EC90E00E94700680919F07EF
:100E70008823C1F36091C5057091C6058091C705AF
:100E80009091C80524E630E040E050E00E94A30DB8
:100E9000C901DA017C018D01E4E6DE2E10C0A80153
:100EA00097010E94A30D8D2D821B87FD44C0809366
:100EB000CB050E943B0384E690E00E947006F89404
:100EC0008091350590913605A0913705B091380590
:100ED0008093BA079093BB07A093BC07B093BD075C
:100EE00060913505709136058091370590913805F0
:100EF000109235051092360510923705109238057C
:100F00007894E114F1040105110549F61092CB051E
:100F10006091C5057091C6058091C7059091C8057F
:100F200024E630E040E050E00E94A30DC901DA0160
:100F30007C018D01BECF1092CB05BBCF82E090E04B
:100F40000E947006F89410923505109236051092A2
:100F5000370510923805789484E690E00E94700678
:100F6000F8948091350590913605A0913705B091A0
:100F700038058093C5059093C605A093C705B09327
:100F8000C80581E080939F0778940895AF92BF923F
:100F9000CF92DF92EF92FF920F931F93CF93DF9345
:100FA000FC01122FF894C22FD0E0CC0FDD1FC056E9
:100FB000D84F88819981892B71F0789418E2812F1C
:100FC000DF91CF911F910F91FF90EF90DF90CF9025
:100FD000BF90AF90089581E090E0998388837894E2
:100FE000CF0120E030E00E940F03BC01812F40E0E0
:100FF00050E020E030E0EE24FF248701CC24DD2403
:10100000AA24BB240E94A905182F882371F4F89400
:101010008091CC058F5F8093CC05789480913405C6
:10102000813069F60E942906CACFF8941982188285
:101030007894C5CFFC01F8948181882379F482816A
:1010400093812FEF8F3F920731F001969383828334
:10105000789480E00895789482E30895CF0160E069
:1010600070E041E00E94600378940E94290680E0CD
:1010700008950F931F93CF93DF93EC018A01809122
:10108000F305882381F4F8948A819B81009799F075
:1010900001979B838A837894FA011082DF91CF9124
:1010A0001F910F91089582E0FA018083DF91CF9123
:1010B0001F910F910895E091F405F091F505858554
:1010C0008160858774876387CE010E94BB03789413
:1010D0000E942906F894E091F405F091F5058585C4
:1010E00080FD0AC0178216827894F8011082DF9181
:1010F000CF911F910F910895CE010E94F003789433
:101100008AE0F8018083CACFFC01F89481818823AA
:1011100051F5A481B5811C962D913C911D971A968D
:101120008D919C911B972817390718F078948EE1C0
:1011300008951696ED91FC91179761937193179608
:10114000FC93EE9316972F5F3F4F1D963C932E9383
:101150001C9714968D919C911597E817F90761F0EB
:10116000789480E00895CF0144E00E946003789471
:101170000E94290680E0089512968D919C91139704
:1011800017969C938E931697EBCFEF92FF920F9347
:101190001F93CF93DF938C017A018091F30588230D
:1011A00009F05CC0F894F801A481B5811C968D917A
:1011B0009C911D97009709F11896ED91FC91199754
:1011C000C191D1911996FC93EE93189701971D96B2
:1011D0009C938E931C9714968D919C911597E8176C
:1011E000F90799F17894F7011082CE01DF91CF9140
:1011F0001F910F91FF90EF900895E091F405F09109
:10120000F50585858460858774876387C8010E949A
:10121000BB0378940E942906F894E091F405F091BC
:10122000F505C085D1852097F9F0118610861586C1
:10123000178216827894F7011082CE01DF91CF9148
:101240001F910F91FF90EF90089512968D919C91B0
:10125000139719969C938E931897C4CF82E0FA0146
:101260008083C0E0D0E0C1CFC8010E94F003789431
:101270008AE0F7018083B9CFFC01F894818188234B
:1012800039F484819581892B61F0789484E1089503
:10129000CF0142E00E94600378940E94290680E01A
:1012A000089575836483789480E00895EF92FF92A7
:1012B0000F931F93CF93DF938C017A018091F305F5
:1012C0008823A1F5F894F801C481D581209769F0AD
:1012D000158214827894FA011082CE01DF91CF91A9
:1012E0001F910F91FF90EF900895E091F405F09118
:1012F000F50585858260858774876387C8010E94AC
:10130000BB0378940E942906F894E091F405F091CB
:10131000F505C085D185209779F011861086158650
:10132000178216827894F7011082D7CF82E0FA01F3
:101330008083C0E0D0E0D1CFC8010E94F003789450
:101340008AE0F7018083C9CFCF92DF92EF92FF92BC
:101350000F931F93DF93CF930F92CDB7DEB78C011E
:101360007901F894442309F054C06095FC0183810D
:1013700086238383F801C180D280C114D10409F48B
:1013800058C019820AC08330B1F1F6018081918181
:101390009C01690121153105D1F0F601818582306A
:1013A00091F7F6016085F80183818623681769F754
:1013B000C6010E94BA04813041F7F1E0F983F601D9
:1013C000808191819C0169012115310531F7789463
:1013D000F981F13059F1F894F80183817894F7019B
:1013E00010820F90CF91DF911F910F91FF90EF909E
:1013F000DF90CF900895F6016085F801838168231E
:1014000009F4C3CFC6010E94BA04813009F0BDCFF0
:10141000D4CF413031F0789489E9F901808380E0BC
:10142000E0CFFC018381862B8383A4CF0E94290611
:10143000D2CF1982CCCF8F929F92AF92BF92CF9290
:10144000DF92FF920F931F93DF93CF93CDB7DEB759
:101450002B970FB6F894DEBF0FBECDBF6C01562F91
:10146000F42EF90158018091F305882309F547FD11
:1014700024C01B86F89482E0F81639F1A3E0FA162E
:10148000C9F1789487E9F501808380E02B960FB647
:10149000F894DEBF0FBECDBFCF91DF911F910F91AA
:1014A000FF90DF90CF90BF90AF909F908F90089566
:1014B00082E0D8018C9380E0E9CFBFE7FB2221E0F6
:1014C0002B87F89482E0F816C9F6D60113969C9102
:1014D000852F8923851709F5BB85B13031F4852F18
:1014E00080958923F6018383982F892F7894D501DD
:1014F0001C92CCCFD60113969C91852F892369F13C
:10150000BB85B13029F480958923F6018383982F18
:10151000892F7894D5011C92B9CFC6014E01089449
:10152000811C911CB401452F22E08F010E944204CE
:1015300078940E942906F894E091F405F091F5055D
:10154000858585FD17C0BB85B13011F1F60193810A
:10155000892F7894D5011C9299CFC6014E01089429
:10156000811C911CB401452F23E08F010E9442048D
:101570007894DFCFC4010E949B04E091F405F091C0
:10158000F505158678948AE0D5018C9380E07ECFAE
:101590002EEFF20E81E08F1520F4D60113969C9168
:1015A000D7CF82858095F601938198239383D0CFFE
:1015B00080913405813009F00895F89480913305C5
:1015C000882359F0815080933305882321F480913A
:1015D000F305882321F078940895789408957894F9
:1015E0000E94290608950E943C03809134058130B1
:1015F00009F00895A0913F05B09140051E968C9189
:101600001E978C30B1F32091ED0541E050E01AC0F7
:1016100052968C915297282B5096EC915097F0E06F
:10162000E251FA4F808151969C915197892B80838A
:1016300012960D90BC91A02D78941E968C911E97B9
:101640008C30C1F0F8941B968D919C911C9700975B
:1016500079F301971C969C938E931B97892B41F7E6
:101660001D968C911D9783FFD3CF1C965C934E9350
:101670001B97DECF2093ED050895809134058111ED
:101680000895E091ED05F0E0E65EFE4FA081EA2FBF
:10169000F0E0E251FA4FE081F0E0E65EFE4FAA0F83
:1016A000AA0FAA0F8081A80FA0933905A0933E0529
:1016B000B0E0AA0FBB1FA056B84F8D919C9190939C
:1016C000EA058093E9059093F5058093F4050E945F
:1016D000410C089580913405813009F00895F89403
:1016E0008091F305882339F081508093F305882396
:1016F00011F078940895809133058823D1F7E09113
:10170000ED05F0E0E65EFE4F80818093F205E82F64
:10171000F0E0E251FA4FE081F0E0E65EFE4F982FF4
:10172000990F990F990F8081980F909339058091A7
:101730003E059817F1F2E92FF0E0EE0FFF1FE0569B
:10174000F84F808191819093EA058093E90580911B
:10175000C1059091C205A091C305B091C405019641
:10176000A11DB11D8093C1059093C205A093C3052F
:10177000B093C4050E94D80CBCCF0E943D031092C8
:10178000F305109233051092CC0510923405109297
:10179000C1051092C2051092C3051092C4051092A3
:1017A00035051092360510923705109238051092C3
:1017B000ED051092EE051092EF0510923E05109285
:1017C00039051092EA051092E9051092F50510927C
:1017D000F4051092400510923F05E0EAF7E01192FF
:1017E000119227E0EA3BF207D1F789EB96E0FC0182
:1017F000719791838083439627E08D399207B9F7DB
:1018000010928D0710928C0786EA96E09093CA0595
:101810008093C90526E736E0F901CF0108961082CA
:1018200095838483FC0186E0EE39F807B1F71082D6
:10183000158214823093F1052093F0058AE395E038
:1018400090939E0780939D0710923A0510923C0555
:1018500010923B050E94750581E196E060E070E022
:1018600045E756E02CE00E94C60789E297E060E079
:1018700070E040EC55E02BE00E94C6070E943E035A
:1018800008950E943A0300913405039500933405AE
:10189000E091E905F091EA05C191CDBFD191DEBF9C
:1018A0000F910FBF0F910BBFFF91EF91DF91CF9180
:1018B000BF91AF919F918F917F916F915F914F9168
:1018C0003F912F911F910F91FF90EF90DF90CF905C
:1018D000BF90AF909F908F907F906F905F904F9050
:1018E0003F902F901F900F9008950F921F922F926C
:1018F0003F924F925F926F927F928F929F92AF92A0
:10190000BF92CF92DF92EF92FF920F931F932F938C
:101910003F934F935F936F937F938F939F93AF9377
:10192000BF93CF93DF93EF93FF930BB70F930FB753
:101930000F93E091F405F091F505CDB7C193DEB7B3
:10194000D1930E943A030091390500933E05E0913E
:10195000E905F091EA05E093F405F093F505C191EE
:10196000CDBFD191DEBF0F910FBF0F910BBFFF9184
:10197000EF91DF91CF91BF91AF919F918F917F9127
:101980006F915F914F913F912F911F910F91FF9018
:10199000EF90DF90CF90BF90AF909F908F907F900F
:1019A0006F905F904F903F902F901F900F900895F1
:1019B0000E943A030091390500933E05E091E90544
:1019C000F091EA05E093F405F093F505C191CDBFE0
:1019D000D191DEBF0F910FBF0F910BBFFF91EF9120
:1019E000DF91CF91BF91AF919F918F917F916F9137
:1019F0005F914F913F912F911F910F91FF90EF9029
:101A0000DF90CF90BF90AF909F908F907F906F901E
:101A10005F904F903F902F901F900F9008950F92DE
:101A20001F922F923F924F925F926F927F928F926E
:101A30009F92AF92BF92CF92DF92EF92FF920F935D
:101A40001F932F933F934F935F936F937F938F9346
:101A50009F93AF93BF93CF93DF93EF93FF930BB716
:101A60000F930FB700680F930091F3050395009350
:101A7000F305013041F4CDB7DEB7E091F405F09104
:101A8000F505C193D19304E602BF78940E94F30A4E
:101A900000000E946A0B0F910FBF0F910BBFFF91C7
:101AA000EF91DF91CF91BF91AF919F918F917F91F6
:101AB0006F915F914F913F912F911F910F91FF90E7
:101AC000EF90DF90CF90BF90AF909F908F907F90DE
:101AD0006F905F904F903F902F901F900F900895C0
:101AE000629FD001739FF001829FE00DF11D649F02
:101AF000E00DF11D929FF00D839FF00D749FF00D8E
:101B0000659FF00D9927729FB00DE11DF91F639F2E
:101B1000B00DE11DF91FBD01CF0111240895AA1BCD
:101B2000BB1B51E107C0AA1FBB1FA617B70710F0C8
:101B3000A61BB70B881F991F5A95A9F780959095FA
:101B4000BC01CD010895A1E21A2EAA1BBB1BFD0109
:101B50000DC0AA1FBB1FEE1FFF1FA217B307E4078C
:101B6000F50720F0A21BB30BE40BF50B661F771FE4
:101B7000881F991F1A9469F76095709580959095C4
:0E1B80009B01AC01BD01CF010895F894FFCF89
:101B8E00112B424D607181883F065B4F666D7D273C
:101B9E007F6F010204081020408000000100020047
:101BAE000100030001000200010004000100020018
:101BBE000100030001000200010005000100020007
:101BCE0001000300010002000100040001000200F8
:101BDE0001000300010002000100060001000200E6
:101BEE0001000300010002000100040001000200D8
:101BFE0001000300010002000100050001000200C7
:101C0E0001000300010002000100040001000200B7
:101C1E0001000300010002000100070001000200A4
:101C2E000100030001000200010004000100020097
:101C3E000100030001000200010005000100020086
:101C4E000100030001000200010004000100020077
:101C5E000100030001000200010006000100020065
:101C6E000100030001000200010004000100020057
:101C7E000100030001000200010005000100020046
:101C8E000100030001000200010004000100020037
:0A1C9E000100030001000200010034
:00000001FF
